{
  "contractName": "DEX",
  "abi": [
    {
      "inputs": [],
      "stateMutability": "nonpayable",
      "type": "constructor"
    },
    {
      "anonymous": false,
      "inputs": [
        {
          "indexed": false,
          "internalType": "uint256",
          "name": "tradeId",
          "type": "uint256"
        },
        {
          "indexed": false,
          "internalType": "uint256",
          "name": "orderId",
          "type": "uint256"
        },
        {
          "indexed": true,
          "internalType": "bytes32",
          "name": "ticker",
          "type": "bytes32"
        },
        {
          "indexed": true,
          "internalType": "address",
          "name": "trader1",
          "type": "address"
        },
        {
          "indexed": true,
          "internalType": "address",
          "name": "trader2",
          "type": "address"
        },
        {
          "indexed": false,
          "internalType": "uint256",
          "name": "amount",
          "type": "uint256"
        },
        {
          "indexed": false,
          "internalType": "uint256",
          "name": "price",
          "type": "uint256"
        },
        {
          "indexed": false,
          "internalType": "uint256",
          "name": "date",
          "type": "uint256"
        }
      ],
      "name": "newTrade",
      "type": "event"
    },
    {
      "inputs": [],
      "name": "admin",
      "outputs": [
        {
          "internalType": "address",
          "name": "",
          "type": "address"
        }
      ],
      "stateMutability": "view",
      "type": "function"
    },
    {
      "inputs": [
        {
          "internalType": "bytes32",
          "name": "",
          "type": "bytes32"
        },
        {
          "internalType": "uint256",
          "name": "",
          "type": "uint256"
        },
        {
          "internalType": "uint256",
          "name": "",
          "type": "uint256"
        }
      ],
      "name": "orderBook",
      "outputs": [
        {
          "internalType": "uint256",
          "name": "id",
          "type": "uint256"
        },
        {
          "internalType": "address",
          "name": "trader",
          "type": "address"
        },
        {
          "internalType": "enum DEX.Side",
          "name": "side",
          "type": "uint8"
        },
        {
          "internalType": "bytes32",
          "name": "ticker",
          "type": "bytes32"
        },
        {
          "internalType": "uint256",
          "name": "amount",
          "type": "uint256"
        },
        {
          "internalType": "uint256",
          "name": "filled",
          "type": "uint256"
        },
        {
          "internalType": "uint256",
          "name": "price",
          "type": "uint256"
        },
        {
          "internalType": "uint256",
          "name": "date",
          "type": "uint256"
        }
      ],
      "stateMutability": "view",
      "type": "function"
    },
    {
      "inputs": [
        {
          "internalType": "uint256",
          "name": "",
          "type": "uint256"
        }
      ],
      "name": "tokenList",
      "outputs": [
        {
          "internalType": "bytes32",
          "name": "",
          "type": "bytes32"
        }
      ],
      "stateMutability": "view",
      "type": "function"
    },
    {
      "inputs": [
        {
          "internalType": "bytes32",
          "name": "",
          "type": "bytes32"
        }
      ],
      "name": "tokens",
      "outputs": [
        {
          "internalType": "bytes32",
          "name": "ticker",
          "type": "bytes32"
        },
        {
          "internalType": "address",
          "name": "tokenAddress",
          "type": "address"
        }
      ],
      "stateMutability": "view",
      "type": "function"
    },
    {
      "inputs": [
        {
          "internalType": "address",
          "name": "",
          "type": "address"
        },
        {
          "internalType": "bytes32",
          "name": "",
          "type": "bytes32"
        }
      ],
      "name": "traderBalance",
      "outputs": [
        {
          "internalType": "uint256",
          "name": "",
          "type": "uint256"
        }
      ],
      "stateMutability": "view",
      "type": "function"
    },
    {
      "inputs": [
        {
          "internalType": "bytes32",
          "name": "ticker",
          "type": "bytes32"
        },
        {
          "internalType": "enum DEX.Side",
          "name": "side",
          "type": "uint8"
        }
      ],
      "name": "getOrders",
      "outputs": [
        {
          "components": [
            {
              "internalType": "uint256",
              "name": "id",
              "type": "uint256"
            },
            {
              "internalType": "address",
              "name": "trader",
              "type": "address"
            },
            {
              "internalType": "enum DEX.Side",
              "name": "side",
              "type": "uint8"
            },
            {
              "internalType": "bytes32",
              "name": "ticker",
              "type": "bytes32"
            },
            {
              "internalType": "uint256",
              "name": "amount",
              "type": "uint256"
            },
            {
              "internalType": "uint256",
              "name": "filled",
              "type": "uint256"
            },
            {
              "internalType": "uint256",
              "name": "price",
              "type": "uint256"
            },
            {
              "internalType": "uint256",
              "name": "date",
              "type": "uint256"
            }
          ],
          "internalType": "struct DEX.Order[]",
          "name": "",
          "type": "tuple[]"
        }
      ],
      "stateMutability": "view",
      "type": "function"
    },
    {
      "inputs": [],
      "name": "getTokens",
      "outputs": [
        {
          "components": [
            {
              "internalType": "bytes32",
              "name": "ticker",
              "type": "bytes32"
            },
            {
              "internalType": "address",
              "name": "tokenAddress",
              "type": "address"
            }
          ],
          "internalType": "struct DEX.Token[]",
          "name": "",
          "type": "tuple[]"
        }
      ],
      "stateMutability": "view",
      "type": "function"
    },
    {
      "inputs": [
        {
          "internalType": "bytes32",
          "name": "ticker",
          "type": "bytes32"
        },
        {
          "internalType": "address",
          "name": "tokenAddress",
          "type": "address"
        }
      ],
      "name": "addToken",
      "outputs": [],
      "stateMutability": "nonpayable",
      "type": "function"
    },
    {
      "inputs": [
        {
          "internalType": "uint256",
          "name": "amount",
          "type": "uint256"
        },
        {
          "internalType": "bytes32",
          "name": "ticker",
          "type": "bytes32"
        }
      ],
      "name": "deposite",
      "outputs": [],
      "stateMutability": "nonpayable",
      "type": "function"
    },
    {
      "inputs": [
        {
          "internalType": "uint256",
          "name": "amount",
          "type": "uint256"
        },
        {
          "internalType": "bytes32",
          "name": "ticker",
          "type": "bytes32"
        }
      ],
      "name": "withdraw",
      "outputs": [],
      "stateMutability": "nonpayable",
      "type": "function"
    },
    {
      "inputs": [
        {
          "internalType": "bytes32",
          "name": "ticker",
          "type": "bytes32"
        },
        {
          "internalType": "uint256",
          "name": "amount",
          "type": "uint256"
        },
        {
          "internalType": "enum DEX.Side",
          "name": "side",
          "type": "uint8"
        }
      ],
      "name": "createMarketOrder",
      "outputs": [],
      "stateMutability": "nonpayable",
      "type": "function"
    },
    {
      "inputs": [
        {
          "internalType": "bytes32",
          "name": "ticker",
          "type": "bytes32"
        },
        {
          "internalType": "uint256",
          "name": "amount",
          "type": "uint256"
        },
        {
          "internalType": "uint256",
          "name": "price",
          "type": "uint256"
        },
        {
          "internalType": "enum DEX.Side",
          "name": "side",
          "type": "uint8"
        }
      ],
      "name": "createLimitOrder",
      "outputs": [],
      "stateMutability": "nonpayable",
      "type": "function"
    }
  ],
  "bytecode": "0x608060405234801561001057600080fd5b5033600260006101000a81548173ffffffffffffffffffffffffffffffffffffffff021916908373ffffffffffffffffffffffffffffffffffffffff160217905550613e0d806100616000396000f3fe608060405234801561001057600080fd5b50600436106100b45760003560e01c80639ead7222116100715780639ead7222146101b9578063a8d2021a146101e9578063aa6ca80814610205578063d9c0c95014610223578063f851a4401461023f578063feb4925d1461025d576100b4565b80630bb431b6146100b95780632fae14dd146100f057806346e9658b146101205780637f2c624614610150578063904194a31461016c5780639776aacf1461019d575b600080fd5b6100d360048036038101906100ce91906132cc565b610279565b6040516100e79897969594939291906139d7565b60405180910390f35b61010a60048036038101906101059190613177565b610318565b60405161011791906139bc565b60405180910390f35b61013a60048036038101906101359190613241565b61033d565b6040516101479190613854565b60405180910390f35b61016a6004803603810190610165919061327d565b610513565b005b610186600480360381019061018191906131dc565b611c19565b6040516101949291906138b3565b60405180910390f35b6101b760048036038101906101b29190613205565b611c5d565b005b6101d360048036038101906101ce919061337e565b611dac565b6040516101e09190613898565b60405180910390f35b61020360048036038101906101fe91906133a7565b611dd0565b005b61020d61208a565b60405161021a9190613876565b60405180910390f35b61023d6004803603810190610238919061331b565b61227d565b005b610247612e4a565b60405161025491906137d9565b60405180910390f35b610277600480360381019061027291906133a7565b612e70565b005b600560205282600052604060002060205281600052604060002081815481106102a157600080fd5b906000526020600020906007020160009250925050508060000154908060010160009054906101000a900473ffffffffffffffffffffffffffffffffffffffff16908060010160149054906101000a900460ff16908060020154908060030154908060040154908060050154908060060154905088565b6006602052816000526040600020602052806000526040600020600091509150505481565b606060056000848152602001908152602001600020600083600181111561038d577f4e487b7100000000000000000000000000000000000000000000000000000000600052602160045260246000fd5b8152602001908152602001600020805480602002602001604051908101604052809291908181526020016000905b82821015610507578382906000526020600020906007020160405180610100016040529081600082015481526020016001820160009054906101000a900473ffffffffffffffffffffffffffffffffffffffff1673ffffffffffffffffffffffffffffffffffffffff1673ffffffffffffffffffffffffffffffffffffffff1681526020016001820160149054906101000a900460ff16600181111561048a577f4e487b7100000000000000000000000000000000000000000000000000000000600052602160045260246000fd5b60018111156104c2577f4e487b7100000000000000000000000000000000000000000000000000000000600052602160045260246000fd5b815260200160028201548152602001600382015481526020016004820154815260200160058201548152602001600682015481525050815260200190600101906103bb565b50505050905092915050565b82600073ffffffffffffffffffffffffffffffffffffffff166004600083815260200190815260200160002060010160009054906101000a900473ffffffffffffffffffffffffffffffffffffffff1673ffffffffffffffffffffffffffffffffffffffff1614156105ba576040517f08c379a00000000000000000000000000000000000000000000000000000000081526004016105b19061395c565b60405180910390fd5b837f444149000000000000000000000000000000000000000000000000000000000081141561061e576040517f08c379a00000000000000000000000000000000000000000000000000000000081526004016106159061393c565b60405180910390fd5b600180811115610657577f4e487b7100000000000000000000000000000000000000000000000000000000600052602160045260246000fd5b836001811115610690577f4e487b7100000000000000000000000000000000000000000000000000000000600052602160045260246000fd5b141561072a5783600660003373ffffffffffffffffffffffffffffffffffffffff1673ffffffffffffffffffffffffffffffffffffffff1681526020019081526020016000206000878152602001908152602001600020541015610729576040517f08c379a0000000000000000000000000000000000000000000000000000000008152600401610720906138fc565b60405180910390fd5b5b600060056000878152602001908152602001600020600080600181111561077a577f4e487b7100000000000000000000000000000000000000000000000000000000600052602160045260246000fd5b8660018111156107b3577f4e487b7100000000000000000000000000000000000000000000000000000000600052602160045260246000fd5b146107bf5760006107c2565b60015b60018111156107fa577f4e487b7100000000000000000000000000000000000000000000000000000000600052602160045260246000fd5b815260200190815260200160002090506000808690505b8280549050821080156108245750600081115b156118bc5760006108d2848481548110610867577f4e487b7100000000000000000000000000000000000000000000000000000000600052603260045260246000fd5b9060005260206000209060070201600401548585815481106108b2577f4e487b7100000000000000000000000000000000000000000000000000000000600052603260045260246000fd5b90600052602060002090600702016003015461309990919063ffffffff16565b905060008183116108e357826108e5565b815b90506108fa818461309990919063ffffffff16565b925061095981868681548110610939577f4e487b7100000000000000000000000000000000000000000000000000000000600052603260045260246000fd5b9060005260206000209060070201600401546130af90919063ffffffff16565b858581548110610992577f4e487b7100000000000000000000000000000000000000000000000000000000600052603260045260246000fd5b9060005260206000209060070201600401819055503373ffffffffffffffffffffffffffffffffffffffff168585815481106109f7577f4e487b7100000000000000000000000000000000000000000000000000000000600052603260045260246000fd5b906000526020600020906007020160010160009054906101000a900473ffffffffffffffffffffffffffffffffffffffff1673ffffffffffffffffffffffffffffffffffffffff168b7ffc9e03b5c8db1d38fcbbef7db5d52adb19b17e683970fa3b5e4320e0c5e924e2600154898981548110610a9d577f4e487b7100000000000000000000000000000000000000000000000000000000600052603260045260246000fd5b906000526020600020906007020160000154868b8b81548110610ae9577f4e487b7100000000000000000000000000000000000000000000000000000000600052603260045260246000fd5b90600052602060002090600702016005015442604051610b0d959493929190613a55565b60405180910390a4600180811115610b4e577f4e487b7100000000000000000000000000000000000000000000000000000000600052602160045260246000fd5b886001811115610b87577f4e487b7100000000000000000000000000000000000000000000000000000000600052602160045260246000fd5b141561114a57610bf081600660003373ffffffffffffffffffffffffffffffffffffffff1673ffffffffffffffffffffffffffffffffffffffff16815260200190815260200160002060008d81526020019081526020016000205461309990919063ffffffff16565b600660003373ffffffffffffffffffffffffffffffffffffffff1673ffffffffffffffffffffffffffffffffffffffff16815260200190815260200160002060008c815260200190815260200160002081905550610d23610ca4868681548110610c83577f4e487b7100000000000000000000000000000000000000000000000000000000600052603260045260246000fd5b906000526020600020906007020160050154836130c590919063ffffffff16565b600660003373ffffffffffffffffffffffffffffffffffffffff1673ffffffffffffffffffffffffffffffffffffffff16815260200190815260200160002060007f44414900000000000000000000000000000000000000000000000000000000008152602001908152602001600020546130af90919063ffffffff16565b600660003373ffffffffffffffffffffffffffffffffffffffff1673ffffffffffffffffffffffffffffffffffffffff16815260200190815260200160002060007f4441490000000000000000000000000000000000000000000000000000000000815260200190815260200160002081905550610e648160066000888881548110610dd8577f4e487b7100000000000000000000000000000000000000000000000000000000600052603260045260246000fd5b906000526020600020906007020160010160009054906101000a900473ffffffffffffffffffffffffffffffffffffffff1673ffffffffffffffffffffffffffffffffffffffff1673ffffffffffffffffffffffffffffffffffffffff16815260200190815260200160002060008d8152602001908152602001600020546130af90919063ffffffff16565b60066000878781548110610ea1577f4e487b7100000000000000000000000000000000000000000000000000000000600052603260045260246000fd5b906000526020600020906007020160010160009054906101000a900473ffffffffffffffffffffffffffffffffffffffff1673ffffffffffffffffffffffffffffffffffffffff1673ffffffffffffffffffffffffffffffffffffffff16815260200190815260200160002060008c81526020019081526020016000208190555061106b610f82868681548110610f61577f4e487b7100000000000000000000000000000000000000000000000000000000600052603260045260246000fd5b906000526020600020906007020160050154836130c590919063ffffffff16565b60066000888881548110610fbf577f4e487b7100000000000000000000000000000000000000000000000000000000600052603260045260246000fd5b906000526020600020906007020160010160009054906101000a900473ffffffffffffffffffffffffffffffffffffffff1673ffffffffffffffffffffffffffffffffffffffff1673ffffffffffffffffffffffffffffffffffffffff16815260200190815260200160002060007f444149000000000000000000000000000000000000000000000000000000000081526020019081526020016000205461309990919063ffffffff16565b600660008787815481106110a8577f4e487b7100000000000000000000000000000000000000000000000000000000600052603260045260246000fd5b906000526020600020906007020160010160009054906101000a900473ffffffffffffffffffffffffffffffffffffffff1673ffffffffffffffffffffffffffffffffffffffff1673ffffffffffffffffffffffffffffffffffffffff16815260200190815260200160002060007f44414900000000000000000000000000000000000000000000000000000000008152602001908152602001600020819055505b60006001811115611184577f4e487b7100000000000000000000000000000000000000000000000000000000600052602160045260246000fd5b8860018111156111bd577f4e487b7100000000000000000000000000000000000000000000000000000000600052602160045260246000fd5b141561188f576112208585815481106111ff577f4e487b7100000000000000000000000000000000000000000000000000000000600052603260045260246000fd5b906000526020600020906007020160050154826130c590919063ffffffff16565b600660003373ffffffffffffffffffffffffffffffffffffffff1673ffffffffffffffffffffffffffffffffffffffff16815260200190815260200160002060007f444149000000000000000000000000000000000000000000000000000000000081526020019081526020016000205410156112d2576040517f08c379a00000000000000000000000000000000000000000000000000000000081526004016112c99061397c565b60405180910390fd5b61133581600660003373ffffffffffffffffffffffffffffffffffffffff1673ffffffffffffffffffffffffffffffffffffffff16815260200190815260200160002060008d8152602001908152602001600020546130af90919063ffffffff16565b600660003373ffffffffffffffffffffffffffffffffffffffff1673ffffffffffffffffffffffffffffffffffffffff16815260200190815260200160002060008c8152602001908152602001600020819055506114686113e98686815481106113c8577f4e487b7100000000000000000000000000000000000000000000000000000000600052603260045260246000fd5b906000526020600020906007020160050154836130c590919063ffffffff16565b600660003373ffffffffffffffffffffffffffffffffffffffff1673ffffffffffffffffffffffffffffffffffffffff16815260200190815260200160002060007f444149000000000000000000000000000000000000000000000000000000000081526020019081526020016000205461309990919063ffffffff16565b600660003373ffffffffffffffffffffffffffffffffffffffff1673ffffffffffffffffffffffffffffffffffffffff16815260200190815260200160002060007f44414900000000000000000000000000000000000000000000000000000000008152602001908152602001600020819055506115a9816006600088888154811061151d577f4e487b7100000000000000000000000000000000000000000000000000000000600052603260045260246000fd5b906000526020600020906007020160010160009054906101000a900473ffffffffffffffffffffffffffffffffffffffff1673ffffffffffffffffffffffffffffffffffffffff1673ffffffffffffffffffffffffffffffffffffffff16815260200190815260200160002060008d81526020019081526020016000205461309990919063ffffffff16565b600660008787815481106115e6577f4e487b7100000000000000000000000000000000000000000000000000000000600052603260045260246000fd5b906000526020600020906007020160010160009054906101000a900473ffffffffffffffffffffffffffffffffffffffff1673ffffffffffffffffffffffffffffffffffffffff1673ffffffffffffffffffffffffffffffffffffffff16815260200190815260200160002060008c8152602001908152602001600020819055506117b06116c78686815481106116a6577f4e487b7100000000000000000000000000000000000000000000000000000000600052603260045260246000fd5b906000526020600020906007020160050154836130c590919063ffffffff16565b60066000888881548110611704577f4e487b7100000000000000000000000000000000000000000000000000000000600052603260045260246000fd5b906000526020600020906007020160010160009054906101000a900473ffffffffffffffffffffffffffffffffffffffff1673ffffffffffffffffffffffffffffffffffffffff1673ffffffffffffffffffffffffffffffffffffffff16815260200190815260200160002060007f44414900000000000000000000000000000000000000000000000000000000008152602001908152602001600020546130af90919063ffffffff16565b600660008787815481106117ed577f4e487b7100000000000000000000000000000000000000000000000000000000600052603260045260246000fd5b906000526020600020906007020160010160009054906101000a900473ffffffffffffffffffffffffffffffffffffffff1673ffffffffffffffffffffffffffffffffffffffff1673ffffffffffffffffffffffffffffffffffffffff16815260200190815260200160002060007f44414900000000000000000000000000000000000000000000000000000000008152602001908152602001600020819055505b600160008154809291906118a290613cb0565b919050555083806118b290613cb0565b9450505050610811565b600091505b8280549050821080156119675750828281548110611908577f4e487b7100000000000000000000000000000000000000000000000000000000600052603260045260246000fd5b906000526020600020906007020160030154838381548110611953577f4e487b7100000000000000000000000000000000000000000000000000000000600052603260045260246000fd5b906000526020600020906007020160040154145b15611c0f5760008290505b600184805490506119839190613bdb565b811015611b4057836001826119989190613b2b565b815481106119cf577f4e487b7100000000000000000000000000000000000000000000000000000000600052603260045260246000fd5b9060005260206000209060070201848281548110611a16577f4e487b7100000000000000000000000000000000000000000000000000000000600052603260045260246000fd5b9060005260206000209060070201600082015481600001556001820160009054906101000a900473ffffffffffffffffffffffffffffffffffffffff168160010160006101000a81548173ffffffffffffffffffffffffffffffffffffffff021916908373ffffffffffffffffffffffffffffffffffffffff1602179055506001820160149054906101000a900460ff168160010160146101000a81548160ff02191690836001811115611af3577f4e487b7100000000000000000000000000000000000000000000000000000000600052602160045260246000fd5b021790555060028201548160020155600382015481600301556004820154816004015560058201548160050155600682015481600601559050508080611b3890613cb0565b915050611972565b5082805480611b78577f4e487b7100000000000000000000000000000000000000000000000000000000600052603160045260246000fd5b60019003818190600052602060002090600702016000808201600090556001820160006101000a81549073ffffffffffffffffffffffffffffffffffffffff02191690556001820160146101000a81549060ff021916905560028201600090556003820160009055600482016000905560058201600090556006820160009055505090558180611c0790613cb0565b9250506118c1565b5050505050505050565b60046020528060005260406000206000915090508060000154908060010160009054906101000a900473ffffffffffffffffffffffffffffffffffffffff16905082565b600260009054906101000a900473ffffffffffffffffffffffffffffffffffffffff1673ffffffffffffffffffffffffffffffffffffffff163373ffffffffffffffffffffffffffffffffffffffff1614611ced576040517f08c379a0000000000000000000000000000000000000000000000000000000008152600401611ce49061391c565b60405180910390fd5b60405180604001604052808381526020018273ffffffffffffffffffffffffffffffffffffffff16815250600460008481526020019081526020016000206000820151816000015560208201518160010160006101000a81548173ffffffffffffffffffffffffffffffffffffffff021916908373ffffffffffffffffffffffffffffffffffffffff16021790555090505060038290806001815401808255809150506001900390600052602060002001600090919091909150555050565b60038181548110611dbc57600080fd5b906000526020600020016000915090505481565b80600073ffffffffffffffffffffffffffffffffffffffff166004600083815260200190815260200160002060010160009054906101000a900473ffffffffffffffffffffffffffffffffffffffff1673ffffffffffffffffffffffffffffffffffffffff161415611e77576040517f08c379a0000000000000000000000000000000000000000000000000000000008152600401611e6e9061395c565b60405180910390fd5b82600660003373ffffffffffffffffffffffffffffffffffffffff1673ffffffffffffffffffffffffffffffffffffffff1681526020019081526020016000206000848152602001908152602001600020541015611f0a576040517f08c379a0000000000000000000000000000000000000000000000000000000008152600401611f019061399c565b60405180910390fd5b611f6d83600660003373ffffffffffffffffffffffffffffffffffffffff1673ffffffffffffffffffffffffffffffffffffffff16815260200190815260200160002060008581526020019081526020016000205461309990919063ffffffff16565b600660003373ffffffffffffffffffffffffffffffffffffffff1673ffffffffffffffffffffffffffffffffffffffff1681526020019081526020016000206000848152602001908152602001600020819055506004600083815260200190815260200160002060010160009054906101000a900473ffffffffffffffffffffffffffffffffffffffff1673ffffffffffffffffffffffffffffffffffffffff1663a9059cbb33856040518363ffffffff1660e01b815260040161203292919061382b565b602060405180830381600087803b15801561204c57600080fd5b505af1158015612060573d6000803e3d6000fd5b505050506040513d601f19601f8201168201806040525081019061208491906131b3565b50505050565b6060600060038054905067ffffffffffffffff8111156120d3577f4e487b7100000000000000000000000000000000000000000000000000000000600052604160045260246000fd5b60405190808252806020026020018201604052801561210c57816020015b6120f96130db565b8152602001906001900390816120f15790505b50905060005b6003805490508110156122755760405180604001604052806004600060038581548110612168577f4e487b7100000000000000000000000000000000000000000000000000000000600052603260045260246000fd5b9060005260206000200154815260200190815260200160002060000154815260200160046000600385815481106121c8577f4e487b7100000000000000000000000000000000000000000000000000000000600052603260045260246000fd5b9060005260206000200154815260200190815260200160002060010160009054906101000a900473ffffffffffffffffffffffffffffffffffffffff1673ffffffffffffffffffffffffffffffffffffffff16815250828281518110612257577f4e487b7100000000000000000000000000000000000000000000000000000000600052603260045260246000fd5b6020026020010181905250808061226d90613cb0565b915050612112565b508091505090565b83600073ffffffffffffffffffffffffffffffffffffffff166004600083815260200190815260200160002060010160009054906101000a900473ffffffffffffffffffffffffffffffffffffffff1673ffffffffffffffffffffffffffffffffffffffff161415612324576040517f08c379a000000000000000000000000000000000000000000000000000000000815260040161231b9061395c565b60405180910390fd5b847f4441490000000000000000000000000000000000000000000000000000000000811415612388576040517f08c379a000000000000000000000000000000000000000000000000000000000815260040161237f9061393c565b60405180910390fd5b6001808111156123c1577f4e487b7100000000000000000000000000000000000000000000000000000000600052602160045260246000fd5b8360018111156123fa577f4e487b7100000000000000000000000000000000000000000000000000000000600052602160045260246000fd5b14156124985784600660003373ffffffffffffffffffffffffffffffffffffffff1673ffffffffffffffffffffffffffffffffffffffff1681526020019081526020016000206000888152602001908152602001600020541015612493576040517f08c379a000000000000000000000000000000000000000000000000000000000815260040161248a906138fc565b60405180910390fd5b61255e565b6124ab84866130c590919063ffffffff16565b600660003373ffffffffffffffffffffffffffffffffffffffff1673ffffffffffffffffffffffffffffffffffffffff16815260200190815260200160002060007f4441490000000000000000000000000000000000000000000000000000000000815260200190815260200160002054101561255d576040517f08c379a0000000000000000000000000000000000000000000000000000000008152600401612554906138dc565b60405180910390fd5b5b60006005600088815260200190815260200160002060008560018111156125ae577f4e487b7100000000000000000000000000000000000000000000000000000000600052602160045260246000fd5b815260200190815260200160002090508060405180610100016040528060005481526020013373ffffffffffffffffffffffffffffffffffffffff168152602001866001811115612628577f4e487b7100000000000000000000000000000000000000000000000000000000600052602160045260246000fd5b8152602001898152602001888152602001600081526020018781526020014281525090806001815401808255809150506001900390600052602060002090600702016000909190919091506000820151816000015560208201518160010160006101000a81548173ffffffffffffffffffffffffffffffffffffffff021916908373ffffffffffffffffffffffffffffffffffffffff16021790555060408201518160010160146101000a81548160ff02191690836001811115612715577f4e487b7100000000000000000000000000000000000000000000000000000000600052602160045260246000fd5b0217905550606082015181600201556080820151816003015560a0820151816004015560c0820151816005015560e082015181600601555050600080828054905011612762576000612774565b600182805490506127739190613bdb565b5b90505b6000811115612e2957600060018111156127ba577f4e487b7100000000000000000000000000000000000000000000000000000000600052602160045260246000fd5b8560018111156127f3577f4e487b7100000000000000000000000000000000000000000000000000000000600052602160045260246000fd5b14801561289f5750818181548110612834577f4e487b7100000000000000000000000000000000000000000000000000000000600052603260045260246000fd5b906000526020600020906007020160050154826001836128549190613bdb565b8154811061288b577f4e487b7100000000000000000000000000000000000000000000000000000000600052603260045260246000fd5b906000526020600020906007020160050154115b156128a957612e29565b600060018111156128e3577f4e487b7100000000000000000000000000000000000000000000000000000000600052602160045260246000fd5b85600181111561291c577f4e487b7100000000000000000000000000000000000000000000000000000000600052602160045260246000fd5b1480156129c8575081818154811061295d577f4e487b7100000000000000000000000000000000000000000000000000000000600052603260045260246000fd5b9060005260206000209060070201600501548260018361297d9190613bdb565b815481106129b4577f4e487b7100000000000000000000000000000000000000000000000000000000600052603260045260246000fd5b906000526020600020906007020160050154105b156129d257612e29565b6000826001836129e29190613bdb565b81548110612a19577f4e487b7100000000000000000000000000000000000000000000000000000000600052603260045260246000fd5b906000526020600020906007020160405180610100016040529081600082015481526020016001820160009054906101000a900473ffffffffffffffffffffffffffffffffffffffff1673ffffffffffffffffffffffffffffffffffffffff1673ffffffffffffffffffffffffffffffffffffffff1681526020016001820160149054906101000a900460ff166001811115612ade577f4e487b7100000000000000000000000000000000000000000000000000000000600052602160045260246000fd5b6001811115612b16577f4e487b7100000000000000000000000000000000000000000000000000000000600052602160045260246000fd5b8152602001600282015481526020016003820154815260200160048201548152602001600582015481526020016006820154815250509050828281548110612b87577f4e487b7100000000000000000000000000000000000000000000000000000000600052603260045260246000fd5b906000526020600020906007020183600184612ba39190613bdb565b81548110612bda577f4e487b7100000000000000000000000000000000000000000000000000000000600052603260045260246000fd5b9060005260206000209060070201600082015481600001556001820160009054906101000a900473ffffffffffffffffffffffffffffffffffffffff168160010160006101000a81548173ffffffffffffffffffffffffffffffffffffffff021916908373ffffffffffffffffffffffffffffffffffffffff1602179055506001820160149054906101000a900460ff168160010160146101000a81548160ff02191690836001811115612cb7577f4e487b7100000000000000000000000000000000000000000000000000000000600052602160045260246000fd5b0217905550600282015481600201556003820154816003015560048201548160040155600582015481600501556006820154816006015590505080838381548110612d2b577f4e487b7100000000000000000000000000000000000000000000000000000000600052603260045260246000fd5b90600052602060002090600702016000820151816000015560208201518160010160006101000a81548173ffffffffffffffffffffffffffffffffffffffff021916908373ffffffffffffffffffffffffffffffffffffffff16021790555060408201518160010160146101000a81548160ff02191690836001811115612ddb577f4e487b7100000000000000000000000000000000000000000000000000000000600052602160045260246000fd5b0217905550606082015181600201556080820151816003015560a0820151816004015560c0820151816005015560e082015181600601559050508180612e2090613c86565b92505050612777565b600080815480929190612e3b90613cb0565b91905055505050505050505050565b600260009054906101000a900473ffffffffffffffffffffffffffffffffffffffff1681565b80600073ffffffffffffffffffffffffffffffffffffffff166004600083815260200190815260200160002060010160009054906101000a900473ffffffffffffffffffffffffffffffffffffffff1673ffffffffffffffffffffffffffffffffffffffff161415612f17576040517f08c379a0000000000000000000000000000000000000000000000000000000008152600401612f0e9061395c565b60405180910390fd5b6004600083815260200190815260200160002060010160009054906101000a900473ffffffffffffffffffffffffffffffffffffffff1673ffffffffffffffffffffffffffffffffffffffff166323b872dd3330866040518463ffffffff1660e01b8152600401612f8a939291906137f4565b602060405180830381600087803b158015612fa457600080fd5b505af1158015612fb8573d6000803e3d6000fd5b505050506040513d601f19601f82011682018060405250810190612fdc91906131b3565b5061304083600660003373ffffffffffffffffffffffffffffffffffffffff1673ffffffffffffffffffffffffffffffffffffffff1681526020019081526020016000206000858152602001908152602001600020546130af90919063ffffffff16565b600660003373ffffffffffffffffffffffffffffffffffffffff1673ffffffffffffffffffffffffffffffffffffffff168152602001908152602001600020600084815260200190815260200160002081905550505050565b600081836130a79190613bdb565b905092915050565b600081836130bd9190613b2b565b905092915050565b600081836130d39190613b81565b905092915050565b604051806040016040528060008019168152602001600073ffffffffffffffffffffffffffffffffffffffff1681525090565b60008135905061311d81613d6b565b92915050565b60008151905061313281613d82565b92915050565b60008135905061314781613d99565b92915050565b60008135905061315c81613db0565b92915050565b60008135905061317181613dc0565b92915050565b6000806040838503121561318a57600080fd5b60006131988582860161310e565b92505060206131a985828601613138565b9150509250929050565b6000602082840312156131c557600080fd5b60006131d384828501613123565b91505092915050565b6000602082840312156131ee57600080fd5b60006131fc84828501613138565b91505092915050565b6000806040838503121561321857600080fd5b600061322685828601613138565b92505060206132378582860161310e565b9150509250929050565b6000806040838503121561325457600080fd5b600061326285828601613138565b92505060206132738582860161314d565b9150509250929050565b60008060006060848603121561329257600080fd5b60006132a086828701613138565b93505060206132b186828701613162565b92505060406132c28682870161314d565b9150509250925092565b6000806000606084860312156132e157600080fd5b60006132ef86828701613138565b935050602061330086828701613162565b925050604061331186828701613162565b9150509250925092565b6000806000806080858703121561333157600080fd5b600061333f87828801613138565b945050602061335087828801613162565b935050604061336187828801613162565b92505060606133728782880161314d565b91505092959194509250565b60006020828403121561339057600080fd5b600061339e84828501613162565b91505092915050565b600080604083850312156133ba57600080fd5b60006133c885828601613162565b92505060206133d985828601613138565b9150509250929050565b60006133ef83836136ea565b6101008301905092915050565b6000613408838361378c565b60408301905092915050565b61341d81613c0f565b82525050565b61342c81613c0f565b82525050565b600061343d82613ac8565b6134478185613af8565b935061345283613aa8565b8060005b8381101561348357815161346a88826133e3565b975061347583613ade565b925050600181019050613456565b5085935050505092915050565b600061349b82613ad3565b6134a58185613b09565b93506134b083613ab8565b8060005b838110156134e15781516134c888826133fc565b97506134d383613aeb565b9250506001810190506134b4565b5085935050505092915050565b6134f781613c2d565b82525050565b61350681613c2d565b82525050565b61351581613c74565b82525050565b61352481613c74565b82525050565b6000613537601483613b1a565b91507f4441492062616c616e636520746f6f206c6f77210000000000000000000000006000830152602082019050919050565b6000613577601983613b1a565b91507f546f6b656e2042616c616e636520697320746f6f206c6f7721000000000000006000830152602082019050919050565b60006135b7601383613b1a565b91507f4f6e6c792061646d696e20616c6c6f77656421000000000000000000000000006000830152602082019050919050565b60006135f7601183613b1a565b91507f546f6b656e206973206e6f7420646169210000000000000000000000000000006000830152602082019050919050565b6000613637601683613b1a565b91507f546f6b656e204e6f7420496e20546865204c69737421000000000000000000006000830152602082019050919050565b6000613677601383613b1a565b91507f6461692062616c616e636520746f6f206c6f77000000000000000000000000006000830152602082019050919050565b60006136b7601583613b1a565b91507f496e73756666696369656e742042616c616e63652100000000000000000000006000830152602082019050919050565b6101008201600082015161370160008501826137bb565b5060208201516137146020850182613414565b506040820151613727604085018261350c565b50606082015161373a60608501826134ee565b50608082015161374d60808501826137bb565b5060a082015161376060a08501826137bb565b5060c082015161377360c08501826137bb565b5060e082015161378660e08501826137bb565b50505050565b6040820160008201516137a260008501826134ee565b5060208201516137b56020850182613414565b50505050565b6137c481613c6a565b82525050565b6137d381613c6a565b82525050565b60006020820190506137ee6000830184613423565b92915050565b60006060820190506138096000830186613423565b6138166020830185613423565b61382360408301846137ca565b949350505050565b60006040820190506138406000830185613423565b61384d60208301846137ca565b9392505050565b6000602082019050818103600083015261386e8184613432565b905092915050565b600060208201905081810360008301526138908184613490565b905092915050565b60006020820190506138ad60008301846134fd565b92915050565b60006040820190506138c860008301856134fd565b6138d56020830184613423565b9392505050565b600060208201905081810360008301526138f58161352a565b9050919050565b600060208201905081810360008301526139158161356a565b9050919050565b60006020820190508181036000830152613935816135aa565b9050919050565b60006020820190508181036000830152613955816135ea565b9050919050565b600060208201905081810360008301526139758161362a565b9050919050565b600060208201905081810360008301526139958161366a565b9050919050565b600060208201905081810360008301526139b5816136aa565b9050919050565b60006020820190506139d160008301846137ca565b92915050565b6000610100820190506139ed600083018b6137ca565b6139fa602083018a613423565b613a07604083018961351b565b613a1460608301886134fd565b613a2160808301876137ca565b613a2e60a08301866137ca565b613a3b60c08301856137ca565b613a4860e08301846137ca565b9998505050505050505050565b600060a082019050613a6a60008301886137ca565b613a7760208301876137ca565b613a8460408301866137ca565b613a9160608301856137ca565b613a9e60808301846137ca565b9695505050505050565b6000819050602082019050919050565b6000819050602082019050919050565b600081519050919050565b600081519050919050565b6000602082019050919050565b6000602082019050919050565b600082825260208201905092915050565b600082825260208201905092915050565b600082825260208201905092915050565b6000613b3682613c6a565b9150613b4183613c6a565b9250827fffffffffffffffffffffffffffffffffffffffffffffffffffffffffffffffff03821115613b7657613b75613cf9565b5b828201905092915050565b6000613b8c82613c6a565b9150613b9783613c6a565b9250817fffffffffffffffffffffffffffffffffffffffffffffffffffffffffffffffff0483118215151615613bd057613bcf613cf9565b5b828202905092915050565b6000613be682613c6a565b9150613bf183613c6a565b925082821015613c0457613c03613cf9565b5b828203905092915050565b6000613c1a82613c4a565b9050919050565b60008115159050919050565b6000819050919050565b6000819050613c4582613d57565b919050565b600073ffffffffffffffffffffffffffffffffffffffff82169050919050565b6000819050919050565b6000613c7f82613c37565b9050919050565b6000613c9182613c6a565b91506000821415613ca557613ca4613cf9565b5b600182039050919050565b6000613cbb82613c6a565b91507fffffffffffffffffffffffffffffffffffffffffffffffffffffffffffffffff821415613cee57613ced613cf9565b5b600182019050919050565b7f4e487b7100000000000000000000000000000000000000000000000000000000600052601160045260246000fd5b7f4e487b7100000000000000000000000000000000000000000000000000000000600052602160045260246000fd5b60028110613d6857613d67613d28565b5b50565b613d7481613c0f565b8114613d7f57600080fd5b50565b613d8b81613c21565b8114613d9657600080fd5b50565b613da281613c2d565b8114613dad57600080fd5b50565b60028110613dbd57600080fd5b50565b613dc981613c6a565b8114613dd457600080fd5b5056fea26469706673582212203ec9ab03c3d5ed4fadd6e38da3b704ce1aba742580681ff249fac2a130d4858564736f6c63430008000033",
  "immutableReferences": {},
  "source": "// SPDX-License-Identifier: GPL-3.0\r\npragma solidity >=0.4.16 <0.9.0;\r\n\r\nimport \"@openzeppelin/contracts/token/ERC20/IERC20.sol\";\r\nimport \"@openzeppelin/contracts/utils/math/SafeMath.sol\";\r\n\r\ncontract DEX {\r\n    using SafeMath for uint256;\r\n\r\n    uint256 nextOrderId;\r\n    uint256 nextTradeId;\r\n\r\n    address public admin;\r\n\r\n    bytes32[] public tokenList;\r\n\r\n    bytes32 constant DAI = bytes32(\"DAI\");\r\n\r\n    enum Side {\r\n        BUY,\r\n        SELL\r\n    }\r\n\r\n    struct Token {\r\n        bytes32 ticker;\r\n        address tokenAddress;\r\n    }\r\n\r\n    struct Order {\r\n        uint256 id;\r\n        address trader;\r\n        Side side;\r\n        bytes32 ticker;\r\n        uint256 amount;\r\n        uint256 filled;\r\n        uint256 price;\r\n        uint256 date;\r\n    }\r\n\r\n    mapping(bytes32 => Token) public tokens;\r\n    mapping(bytes32 => mapping(uint256 => Order[])) public orderBook;\r\n    mapping(address => mapping(bytes32 => uint256)) public traderBalance;\r\n\r\n    event newTrade(\r\n        uint256 tradeId,\r\n        uint256 orderId,\r\n        bytes32 indexed ticker,\r\n        address indexed trader1,\r\n        address indexed trader2,\r\n        uint256 amount,\r\n        uint256 price,\r\n        uint256 date\r\n    );\r\n\r\n    constructor() {\r\n        admin = msg.sender;\r\n    }\r\n\r\n    function getOrders(bytes32 ticker, Side side)\r\n        external\r\n        view\r\n        returns (Order[] memory)\r\n    {\r\n        return orderBook[ticker][uint256(side)];\r\n    }\r\n\r\n    function getTokens() external view returns (Token[] memory) {\r\n        Token[] memory _tokens = new Token[](tokenList.length);\r\n        for (uint256 i = 0; i < tokenList.length; i++) {\r\n            _tokens[i] = Token(\r\n                tokens[tokenList[i]].ticker,\r\n                tokens[tokenList[i]].tokenAddress\r\n            );\r\n        }\r\n        return _tokens;\r\n    }\r\n\r\n    function addToken(bytes32 ticker, address tokenAddress) external onlyAdmin {\r\n        tokens[ticker] = Token(ticker, tokenAddress);\r\n        tokenList.push(ticker);\r\n    }\r\n\r\n    function deposite(uint256 amount, bytes32 ticker)\r\n        external\r\n        tokenExist(ticker)\r\n    {\r\n        IERC20(tokens[ticker].tokenAddress).transferFrom(\r\n            msg.sender,\r\n            address(this),\r\n            amount\r\n        );\r\n        traderBalance[msg.sender][ticker] = traderBalance[msg.sender][ticker]\r\n            .add(amount);\r\n    }\r\n\r\n    function withdraw(uint256 amount, bytes32 ticker)\r\n        external\r\n        tokenExist(ticker)\r\n    {\r\n        require(\r\n            traderBalance[msg.sender][ticker] >= amount,\r\n            \"Insufficient Balance!\"\r\n        );\r\n\r\n        traderBalance[msg.sender][ticker] = traderBalance[msg.sender][ticker]\r\n            .sub(amount);\r\n\r\n        IERC20(tokens[ticker].tokenAddress).transfer(msg.sender, amount);\r\n    }\r\n\r\n    function createMarketOrder(\r\n        bytes32 ticker,\r\n        uint256 amount,\r\n        Side side\r\n    ) external tokenExist(ticker) tokenIsNotDai(ticker) {\r\n        if (side == Side.SELL) {\r\n            require(\r\n                traderBalance[msg.sender][ticker] >= amount,\r\n                \"Token Balance is too low!\"\r\n            );\r\n        }\r\n\r\n        Order[] storage orders = orderBook[ticker][\r\n            uint256(side == Side.BUY ? Side.SELL : Side.BUY)\r\n        ];\r\n        uint256 i;\r\n        uint256 remaining = amount;\r\n\r\n        while (i < orders.length && remaining > 0) {\r\n            uint256 available = orders[i].amount.sub(orders[i].filled);\r\n            uint256 matched = (remaining > available) ? available : remaining;\r\n            remaining = remaining.sub(matched);\r\n            orders[i].filled = orders[i].filled.add(matched);\r\n            emit newTrade(\r\n                nextTradeId,\r\n                orders[i].id,\r\n                ticker,\r\n                orders[i].trader,\r\n                msg.sender,\r\n                matched,\r\n                orders[i].price,\r\n                block.timestamp\r\n            );\r\n            if (side == Side.SELL) {\r\n                traderBalance[msg.sender][ticker] = traderBalance[msg.sender][\r\n                    ticker\r\n                ].sub(matched);\r\n                traderBalance[msg.sender][DAI] = traderBalance[msg.sender][DAI]\r\n                    .add(matched.mul(orders[i].price));\r\n\r\n                traderBalance[orders[i].trader][ticker] = traderBalance[\r\n                    orders[i].trader\r\n                ][ticker].add(matched);\r\n                traderBalance[orders[i].trader][DAI] = traderBalance[\r\n                    orders[i].trader\r\n                ][DAI].sub(matched.mul(orders[i].price));\r\n            }\r\n\r\n            if (side == Side.BUY) {\r\n                require(\r\n                    traderBalance[msg.sender][DAI] >=\r\n                        matched.mul(orders[i].price),\r\n                    \"dai balance too low\"\r\n                );\r\n                traderBalance[msg.sender][ticker] = traderBalance[msg.sender][\r\n                    ticker\r\n                ].add(matched);\r\n                traderBalance[msg.sender][DAI] = traderBalance[msg.sender][DAI]\r\n                    .sub(matched.mul(orders[i].price));\r\n                traderBalance[orders[i].trader][ticker] = traderBalance[\r\n                    orders[i].trader\r\n                ][ticker].sub(matched);\r\n                traderBalance[orders[i].trader][DAI] = traderBalance[\r\n                    orders[i].trader\r\n                ][DAI].add(matched.mul(orders[i].price));\r\n            }\r\n            nextTradeId++;\r\n            i++;\r\n        }\r\n\r\n        i = 0;\r\n        while (i < orders.length && orders[i].filled == orders[i].amount) {\r\n            for (uint256 j = i; j < orders.length - 1; j++) {\r\n                orders[j] = orders[j + 1];\r\n            }\r\n            orders.pop();\r\n            i++;\r\n        }\r\n    }\r\n\r\n    function createLimitOrder(\r\n        bytes32 ticker,\r\n        uint256 amount,\r\n        uint256 price,\r\n        Side side\r\n    ) external tokenExist(ticker) tokenIsNotDai(ticker) {\r\n        if (side == Side.SELL) {\r\n            require(\r\n                traderBalance[msg.sender][ticker] >= amount,\r\n                \"Token Balance is too low!\"\r\n            );\r\n        } else {\r\n            require(\r\n                traderBalance[msg.sender][DAI] >= amount.mul(price),\r\n                \"DAI balance too low!\"\r\n            );\r\n        }\r\n        Order[] storage orders = orderBook[ticker][uint256(side)];\r\n\r\n        orders.push(\r\n            Order(\r\n                nextOrderId,\r\n                msg.sender,\r\n                side,\r\n                ticker,\r\n                amount,\r\n                0,\r\n                price,\r\n                block.timestamp\r\n            )\r\n        );\r\n\r\n        uint256 totalOrder = orders.length > 0 ? orders.length - 1 : 0;\r\n\r\n        while (totalOrder > 0) {\r\n            if (\r\n                side == Side.BUY &&\r\n                orders[totalOrder - 1].price > orders[totalOrder].price\r\n            ) {\r\n                break;\r\n            }\r\n            if (\r\n                side == Side.BUY &&\r\n                orders[totalOrder - 1].price < orders[totalOrder].price\r\n            ) {\r\n                break;\r\n            }\r\n\r\n            Order memory order = orders[totalOrder - 1];\r\n            orders[totalOrder - 1] = orders[totalOrder];\r\n\r\n            orders[totalOrder] = order;\r\n            totalOrder--;\r\n        }\r\n\r\n        nextOrderId++;\r\n    }\r\n\r\n    modifier tokenIsNotDai(bytes32 ticker) {\r\n        require(ticker != DAI, \"Token is not dai!\");\r\n        _;\r\n    }\r\n\r\n    modifier tokenExist(bytes32 ticker) {\r\n        require(\r\n            tokens[ticker].tokenAddress != address(0),\r\n            \"Token Not In The List!\"\r\n        );\r\n        _;\r\n    }\r\n\r\n    modifier onlyAdmin() {\r\n        require(msg.sender == admin, \"Only admin allowed!\");\r\n        _;\r\n    }\r\n}\r\n",
  "sourcePath": "/mnt/g/javascript/Projects/BlockChain/DEX/contracts/DEX.sol",
  "compiler": {
    "name": "solc",
    "version": "0.8.0+commit.c7dfd78e.Emscripten.clang"
  },
  "schemaVersion": "3.4.2",
  "updatedAt": "2021-10-09T08:28:04.198Z",
  "devdoc": {
    "kind": "dev",
    "methods": {},
    "version": 1
  },
  "userdoc": {
    "kind": "user",
    "methods": {},
    "version": 1
  }
}